:020000040000fa
:080000000001040000000000f3
:020000040000fa
:04000800ce02000024
:020000040000fa
:04000c00ce02000020
:020000040000fa
:04001000ce0200001c
:020000040000fa
:04001400ce02000018
:020000040000fa
:04001800ce02000014
:020000040000fa
:04001c00ce02000010
:020000040000fa
:04002000ce0200000c
:020000040000fa
:04002400ce02000008
:020000040000fa
:04002800ce02000004
:020000040000fa
:04002c00ce02000000
:020000040000fa
:04003000ce020000fc
:020000040000fa
:0400340008020000be
:020000040000fa
:04003800ce020000f4
:020000040000fa
:04003c00ce020000f0
:020000040000fa
:04004000ce020000ec
:020000040000fa
:04004400ce020000e8
:020000040000fa
:04004800ce020000e4
:020000040000fa
:04004c00ce020000e0
:020000040000fa
:04005000ce020000dc
:020000040000fa
:04005400ce020000d8
:020000040000fa
:04005800ce020000d4
:020000040000fa
:04005c00ce020000d0
:020000040000fa
:04006000ce020000cc
:020000040000fa
:04006400ce020000c8
:020000040000fa
:04006800ce020000c4
:020000040000fa
:04006c00ce020000c0
:020000040000fa
:04007000ce020000bc
:020000040000fa
:04007400ce020000b8
:020000040000fa
:04007800ce020000b4
:020000040000fa
:04007c00ce020000b0
:020000040000fa
:04008000ce020000ac
:020000040000fa
:04008400ce020000a8
:020000040000fa
:04008800ce020000a4
:020000040000fa
:04008c00ce020000a0
:020000040000fa
:04009000ce0200009c
:020000040000fa
:04009400ce02000098
:020000040000fa
:04009800ce02000094
:020000040000fa
:04009c00ce02000090
:020000040000fa
:0400a000ce0200008c
:020000040000fa
:0400a400ce02000088
:020000040000fa
:0400a800ce02000084
:020000040000fa
:0400ac00ce02000080
:020000040000fa
:0400b000ce0200007c
:020000040000fa
:0400b400ce02000078
:020000040000fa
:0400b800ce02000074
:020000040000fa
:0400bc00ce02000070
:020000040000fa
:0400c000ce0200006c
:020000040000fa
:0400c400ce02000068
:020000040000fa
:0400c800ce02000064
:020000040000fa
:0400cc00ce02000060
:020000040000fa
:0400d000ce0200005c
:020000040000fa
:0400d400ce02000058
:020000040000fa
:0400d800ce02000054
:020000040000fa
:0400dc00ce02000050
:020000040000fa
:0400e000ce0200004c
:020000040000fa
:0400e400ce02000048
:020000040000fa
:0400e800ce02000044
:020000040000fa
:0400ec00ce02000040
:020000040000fa
:0400f000ce0200003c
:020000040000fa
:0400f400ce02000038
:020000040000fa
:0400f800ce02000034
:020000040000fa
:0400fc00ce02000030
:020000040000fa
:04010000ce0200002b
:020000040000fa
:04010400ce02000027
:020000040000fa
:04010800ce02000023
:020000040000fa
:04010c00ce0200001f
:020000040000fa
:04011000ce0200001b
:020000040000fa
:04011400ce02000017
:020000040000fa
:04011800ce02000013
:020000040000fa
:04011c00ce0200000f
:020000040000fa
:04012000ce0200000b
:020000040000fa
:04012400ce02000007
:020000040000fa
:04012800ce02000003
:020000040000fa
:04012c00ce020000ff
:020000040000fa
:04013000ce020000fb
:020000040000fa
:04013400ce020000f7
:020000040000fa
:04013800ce020000f3
:020000040000fa
:04013c00ce020000ef
:020000040000fa
:04014000ce020000eb
:020000040000fa
:04014400ce020000e7
:020000040000fa
:04014800ce020000e3
:020000040000fa
:04014c00ce020000df
:020000040000fa
:04015000ce020000db
:020000040000fa
:04015400ce020000d7
:020000040000fa
:04015800ce020000d3
:020000040000fa
:04015c00ce020000cf
:020000040000fa
:04016000ce020000cb
:020000040000fa
:04016400ce020000c7
:020000040000fa
:04016800ce020000c3
:020000040000fa
:04016c00ce020000bf
:020000040000fa
:04017000ce020000bb
:020000040000fa
:04017400ce020000b7
:020000040000fa
:04017800ce020000b3
:020000040000fa
:04017c00ce020000af
:020000040000fa
:04018000ce020000ab
:020000040000fa
:04018400ce020000a7
:020000040000fa
:04018800ce020000a3
:020000040000fa
:04018c00ce0200009f
:020000040000fa
:04019000ce0200009b
:020000040000fa
:04019400ce02000097
:020000040000fa
:04019800ce02000093
:020000040000fa
:04019c00ce0200008f
:020000040000fa
:0401a000ce0200008b
:020000040000fa
:0401a400ce02000087
:020000040000fa
:0401a800ce02000083
:020000040000fa
:0401ac00ce0200007f
:020000040000fa
:0401b000ce0200007b
:020000040000fa
:0401b400ce02000077
:020000040000fa
:0401b800ce02000073
:020000040000fa
:0401bc00ce0200006f
:020000040000fa
:0401c000ce0200006b
:020000040000fa
:0401c400ce02000067
:020000040000fa
:0401c800ce02000063
:020000040000fa
:0401cc00ce0200005f
:020000040000fa
:0401d000ce0200005b
:020000040000fa
:0401d400ce02000057
:020000040000fa
:0401d800ce02000053
:020000040000fa
:0401dc00ce0200004f
:020000040000fa
:0401e000ce0200004b
:020000040000fa
:0401e400ce02000047
:020000040000fa
:0401e800ce02000043
:020000040000fa
:0401ec00ce0200003f
:020000040000fa
:0401f000ce0200003b
:020000040000fa
:0401f400ce02000037
:020000040000fa
:0401f800ce02000033
:020000040000fa
:0401fc00ce0200002f
:020000040000fa
:100200002f8820000e7f24000e01880000000000cf
:10021000000020000000e000020032000001200089
:100220002002880014000700de0007000000e00044
:1002300003003a00600c2400010020000200370097
:100240000000200001002000810f7000010032003a
:1002500014000700000020000000e000020032004f
:100260000000020000000000f02b0200000000006f
:100270000040da000000fe004440a9008059200040
:100280000000e00003003200002020009001880000
:100290004440a800000006008a1f78008b1f7800e9
:1002a00000000600a1028800800478000000eb0036
:1002b0001f003700e284440054a0b4009905ba003e
:1002c000e284440054a0b4009906ba00e2844400d9
:1002d00054a0b4000006eb00476fde00fd07b2003b
:1002e000ae018800636ce10003003a00eaff0700fa
:1002f0000000eb000e003700606ce10008003a00df
:10030000004deb000a05e800020039003420ec0043
:100310000af0a0008b05e900f9ff3e000400370059
:100320006168e100010032000086eb000b0007006d
:1003300019c7ba001905ba000e04e00003003a001c
:100340000a00e000dbff3a0000000600fe07b200f2
:10035000ae0288008a047800f5ff37000cd0a300b5
:10036000e20f4d001c00390089027800354dba00bb
:100370000a05e800020039003420ec000af0a00071
:100380008b05e9000f003200254dba000a05e80090
:10039000020039003420ec000af0a0008b05e900cf
:1003a000080032000c00e0000600320015cdba0053
:1003b0000a05e800020039003420ec000af0a00031
:1003c0008b05e9008984e80054a0b4000b00e0002c
:1003d000e2ff3a00000006009902ba00055d7800cd
:1003e0008b05e900f7ff3200c82ade00055d7800c2
:1003f0008b05e900f3ff32000c00e000f1ff320052
:1004000019ddba00eeff3700f01e04000000000006
:100410003600f800809fbe00829fbe00849fbe0011
:10042000869fbe003200f8003400f8001000200063
:10043000a001880000202000900188000600fa003a
:10044000010222000e80e800010878008040eb00e5
:100450006400470001487800004080000000e80088
:1004600000408800a140800000408000008f5000c4
:100470000e80e8009e1f7800819c2900811f780073
:10048000fb080700e4875700e0c4840000027800fe
:1004900043c1b30042c1b3008040eb000040eb0019
:1004a0006b1a0700e1cb84000e80e800810278001f
:1004b0000002780013c0b30012c0b30021c0b30023
:1004c00020c0b300181b07001e007800e40f500086
:1004d0000f003c00c04080000000e0000600320039
:1004e0000041eb008000eb00700a2000871c070031
:1004f0001828ef00060037000041eb008000eb00f9
:10050000600a2000811c070010002000c040880005
:1005100001408000a0408000808f50000500350021
:100520001228ef000041eb008000eb00600a200081
:10053000761c0700213380000080200000806000ce
:100540000000e0000a003a00104080000000e800cf
:100550001040880010408000e20f50000500340079
:100560001228ef0010c0b30004e8b7000100370004
:100570000228ef008860a9000080fa003400f9002a
:100580003200f9004f03be004f02be004f01be0013
:100590004f00be003600f900004006000040da00bf
:1005a0000000fe00000005000001be002200070060
:1005b0000470a70003f0a1006509b1001600320025
:1005c0000d0035006828e10006003500f0ff2f001f
:1005d000f1ff27000300e00013003b0001002800aa
:1005e0000000050000004000818048008502e9000d
:1005f000fcff3a0008003700f88f420002003c0080
:100600008000eb00000005008100d1000080d300d5
:100610008502e800fcff3a000300e00002003b0016
:1006200060001000e0801800000006004f89de0026
:10063000820178006a033700c70ade00f107b200c2
:10064000f50fb20008003200e1cf42000200320094
:100650000170a00024000500810f7000010032002d
:100660000408050044000500810f700002003a00f4
:10067000140005008502e9000000400081c0480028
:10068000fcff3b000170a0002400050007f82700d4
:10069000078361000638e10004003a00f7072000f4
:1006a000878361008703710001003a0003f0a20014
:1006b000889fbe008a9fbe008c9fbe00470ade0056
:1006c0000480a100c71ade000580a10007002800f1
:1006d0000785600087856100f70f20000720e10093
:1006e0009e0032000728e1009c00320001067800dd
:1006f0000400e000b4003200f707200087806000ab
:100700000170a0000500e000c0003200f7072000e3
:10071000878161000370a000050652000f003a00b7
:100720000b50e1000b0032000308e10002003a0028
:100730000200e1007e003200020450008384580071
:10074000040031000001fd008101fd008402fd0074
:100750008a05fd006044b800210037000520e10053
:1007600005003d000001fd008101fd008402fd0047
:100770008a05fd00050652007a60e100050035009b
:100780000170a1004722dd00848070008a80700023
:10079000630037006044b800ef02660007ff2f00d7
:1007a000070666000500e00006003400f083120032
:1007b0008714dd000511de00071bdd000601710056
:1007c0008519de007060e10005003500090478003d
:1007d00082047800030178008001eb007006560067
:1007e0000b50e10003003a00020040008380480003
:1007f0000400370060041400e0841c00020058006c
:10080000838058000188a300060032008100d100d7
:100810000080d3008984d3000884d3000402e80058
:10082000270037000178a30025003a000100e0000e
:10083000030032008186cf00698656000a00370027
:100840008c0020000000e00004003a00090078005d
:10085000880478000004eb00700252008086cf000c
:100860000d0646000c06e9007060e1000600350048
:100870008000780009007800880478000004eb000c
:1008800070065600700252000c00e0000c003400ac
:100890008c08dd00f00316000703de008680700080
:1008a0000c00dd00074bde00060070008c4cdd0004
:1008b0000743de00868474000c44dd000c02520005
:1008c0006120e10020003500610160000700280080
:1008d00087816400f7ff27008783640007037400a3
:1008e0000300e000060032008203730004003200bf
:1008f0000000e800e08048000188a3000e003a00f4
:10090000f70f20000720e1004a003d000170a10020
:100910004722dd00810072008a8070000000be0066
:100920004f06be004f05be004f04be00000006008b
:100930006000b800faff37008100d1000080d300ca
:100940000402e800eeff370004017800890174001a
:10095000a10107008a807000f1ff3700f70107004e
:10096000070278000001fd008101fd00f30107008e
:1009700087027800850372000778a3000400320024
:100980000001fd008101fd0006020700e4ff3700c1
:10099000850362000768a300080032000b50e100e5
:1009a00003003200f0ff2f00f1ff2700dcff3700cb
:1009b0000001fd008101fd00d9ff37000468a3009c
:1009c000d7ff3200faff3700f8ff27008883600066
:1009d0000b003a000000e00009003a0083036400c5
:1009e00082837300020032000200be00ccff370099
:1009f0000b50e100ceff3a000200be00c8ff3700f6
:100a000014002000810064003eff3700f8ff27003b
:100a10008883610004003a000200e00002003a000e
:100a20008c007800beff37001500200083016400b1
:100a300039ff370001f82700000020008100750011
:100a4000b7ff3700889fbe008a9fbe008c9fbe0004
:100a50001b0020000202be00058668000600280078
:100a6000060666004709de00f20fb200820032007f
:100a70000243e80080003200c729de00f30fb20015
:100a80007d0032000343e8007b003200f107b20032
:100a90000170a000f507b2000570a000c708dd00d6
:100aa0004903de00868070004700dd00c72add00b4
:100ab0004923de00868272004722dd0003055100d3
:100ac00004035000858358000300310000004000fb
:100ad000818048000a05e9008c1f78008a9fbe00cb
:100ae00004005000858058000402420085824a00bc
:100af00000004000818048000005eb000004be00bb
:100b00006033b8000406be000d48e1005600310015
:100b1000110009004dccd8000c01b8000d02b8003e
:100b20008481410060824a008283530003045c0098
:100b300084845c0060055d000a00e00025003a0046
:100b4000800578000d40e100490031008800780000
:100b500007007800110009004d88d8000c01b8008a
:100b60000d02b8008481410060824a0060031100d8
:100b700083835b0004045c00e0845c000900e00007
:100b800021003a004f01be000300e0002b003200bc
:100b9000e3016000070673008c81710001003200e0
:100ba000640070004200de004e5edd000c0070004c
:100bb000c258de0001e0a00083010700cf017800e9
:100bc000818071004f06be004f05be004f04be007d
:100bd000000006008c8343000d044c00e0844c00b0
:100be00060054d000000e9000a00e000d4ff32007b
:100bf0008c8343000d044c00e0844c0060054d00e4
:100c00000000e900ceff37000c0343008d834b004a
:100c100060044c00e0844c000000e9000900e000a2
:100c2000d8ff32000c0343008d834b0060044c005e
:100c3000e0844c000000e900d2ff37004200de00f3
:100c40004e5edd000c007000c258de0001e0a00026
:100c5000cf0178000300e000daff320060001000ee
:100c6000e0801800d7ff3700f0ff2f00aaff370001
:100c7000f0ff2f00b9ff37000404be002f0107006a
:100c8000870678000004fd008104fd002b010700a9
:100c9000078366000678a300030032000960a700fe
:100ca0000800be002c0037000d78a30002003200bf
:100cb0000800be00280037000778a30026003a008d
:100cc00001f0a10009f0a1000668a30003003200b2
:100cd000f1ff2700f0ff2f00baff37000d68a300d7
:100ce000030032000800be008c807000b5ff3700a2
:100cf0000768a30007003a000648a300030032007b
:100d0000f1ff2700f0ff2f00aeff37000d48a300d2
:100d1000030032006000b8008c807000a9ff37002b
:100d20000748a3000400320001f82700000020005b
:100d30008c807000a3ff3700760107000004fd00df
:100d40008104fd0002057800720107000802be0060
:100d50008a01780059ff37000160a00012022000cc
:100d60003241880097ff37000100e0001200320096
:100d70000500e00010003200889fbe008a9fbe0080
:100d80008c9fbe000006eb0001f8a30003003200b8
:100d900060001000e08018000cf0a00005f8a3002f
:100da0000300320060021200e0821a000cf0a20080
:100db0008005eb0041ff37006000b800020005002d
:100dc000038368000700280007036300470ade006a
:100dd0000480a100c71ade000580a100f70f2000e3
:100de0000720e100420032000728e1004000320005
:100df000889fbe008a9fbe008c1f7800f107b2005a
:100e0000f307b2000400e000640032000170a000ab
:100e10000500e000680032000370a0008505420074
:100e2000eb07b1000204b8000302b8008484440058
:100e300060854a00020ab800848444000a854a009a
:100e4000030ab80004054500040033000804d0007c
:100e50008984d2000a85d2008b05e9006158e1003f
:100e60003d00350002102000090161000308200048
:100e700089816100f707200087836400088673007a
:100e8000c84cde00c853dd00878474004855de007e
:100e90000300e00006003200820376000400320006
:100ea0008904e80060054d000a88a3000c003a00a0
:100eb000f70f20000758e10044003d000a70a10030
:100ec000c75ddd000a8575008a007300090078009f
:100ed0004f0678004f05be004f04be00000006001c
:100ee0000a05d1008984d3008b05e800f0ff3700a4
:100ef000881f780006047800900007000702780039
:100f00000001fd008101fd008c00070087027800d0
:100f1000850372000778a300050032000001fd0080
:100f20008101fd009f0007004f04780000000600cb
:100f3000850372000748a30003003200f0ff2f0072
:100f4000f1ff2700f8ff37000000200001f827001c
:100f500088807000f4ff3700880178004848dd0081
:100f6000808171004848de00c850dd00010070003b
:100f7000c850de00060478000b0178001600070058
:100f800088807000d2ff37000500e00005003200c5
:100f9000170020003a0007009dff37008103700012
:100fa000f9ff3a00860078004f0678004f05be0032
:100fb0004f04be000000050083037100f9ff3200fa
:100fc000270020002e00070094ff370001f82700bb
:100fd00086807000f4ff37000100e0002600320038
:100fe000610111007810e10023003c006022b8008c
:100ff0007010e100040035008002780001007800e4
:101000008000eb00700151000200e0000900340094
:1010100070031100062add00822ade008603dd004f
:10102000878272000200de00860bdd000700700080
:101030008208de0084817100f4ff270004826200d0
:1010400084817100040028008482620061026000d3
:1010500005f0a600000006000482710007003200bf
:101060000000e800e0804800000006000002be002a
:101070006000b800efff37006000b8000000060015
:10108000889fbe000004eb006138e10016003a00c2
:101090000100e00008003a00c800de004800dd0062
:1010a000880020000100e00003003a00c800de00d4
:1010b0004800dd00680444008184cf00e9845400c6
:1010c000060034008908dd00f08314008703de0089
:1010d000878070000900dd000904440061021400eb
:1010e0004f04be00000006000300e00008003a00c4
:1010f000c811de004811dd00880020000300e00078
:1011000003003a00c811de004811dd006804440005
:101110008384cf00e9845400060034008919dd007f
:10112000f08314008713de00878171000911dd0050
:1011300009044400e1021400e9ff37002700200001
:1011400001f0a70017002000470bde00f60fb200e9
:10115000040032000643e8000a0032004702b300f0
:101160000000060001037800f607b20006037000d5
:1011700002003a000703b300000006008702b30034
:101180000000060001037800f607b20006037000b5
:10119000020032000770a000000006000760a000f7
:1011a000000006000478a300040032000578a300c4
:1011b000030032000168a30001003a000200be00f3
:1011c0000160a000000006008101700027003200cd
:1011d0008002eb0001f8a300030032006000100061
:1011e000e080180015002000f407200002024200f1
:1011f00020003400f703200087036000060420006d
:101200000003630002082000000161004700de00c7
:10121000c909dd0000807100c708de000600e0009b
:101220000800320087037100060032001000b00091
:101230000180b0000188a30002003200c108de0076
:101240000402e800f107b200f30f20000320e100e0
:1012500003003d004722dd008100720029003700b5
:1012600001f827000000eb00260037006000b800fe
:1012700000000600680212007f20e1000200340036
:101280006000b8001f0037006011b8007020e10056
:101290000400350080017800010078008000eb0038
:1012a000700252000400e00009003400f003120054
:1012b0000719dd008419de000703dd008681710057
:1012c0000400de00070bdd00060070008408de006d
:1012d000f7ff27008383630087037100060028005f
:1012e00003036300070032000700e00003003a0038
:1012f0006101600002817300020032001000b00042
:101300000180b0000500a6000000060001f0a0006a
:10131000000006004f0ade004709de00f107b200b8
:10132000f20fb2000b003200f207b1000170a00012
:10133000c708dd00c901de00838070004700dd00c2
:101340000400a6000000060060001000e080180005
:1013500000000600810f700001003a000000060046
:101360008182cf000500e00010003e008082cf00a7
:10137000ee8242007028e1000400390007003e00c0
:10138000800078000000eb000e0037007083120030
:101390008600de000500dd000a0037007083520081
:1013a0008600dd000000eb0006003700e2825200fc
:1013b0008508dd00708312000603de008680700061
:1013c0000500dd007507b0000501ea000400a60075
:1013d0000000060060001000e08018000000060019
:1013e000881f7800030478000300e00007003d0038
:1013f00060001000e080180060011900e081190011
:1014000002003b0001f02d0003003700040007003c
:1014100008f0a70001f0a0004f04780000000600cb
:10142000889fbe008a9fbe00008270000402710087
:1014300004827100260032000004be000200be00db
:101440006011b8006b092000950220000182cf00d6
:101450000a0039000541b1000082cf0007003900c1
:101460000541b1000982cf00040039000541b100f7
:101470000882cf00010039000541b1000542520049
:10148000120032000a003b00828171006101640099
:101490008100d1000080d3008984d3000884d30068
:1014a0008b05e8000442e800f7ff3a000700370028
:1014b0000804440089844c000000480081804800f2
:1014c0008b05e9000442e900f9ff3a000300070038
:1014d0004f05be004f04be00000006008100200042
:1014e000618055000b003d000b00200061fe2f00c5
:1014f0000100e1001d00340082817100610164007f
:101500008904d1000884d3000000e800faff3a0003
:1015100071002000610064000300700002006000a0
:101520000900320061044400e0844c000988a500f1
:10153000050032008b05e8006808e10002003a006f
:101540008904d1000884d300f20f20000258e10082
:1015500005003d00c75ddd00f907b2008980750018
:1015600008007800000006000bf827008b007800c8
:1015700000000500881f780000047800080078004b
:1015800003000700080078004f0478000000060000
:10159000881f78008101780000027800808268004e
:1015a0000508a30002003200210037000201e90013
:1015b00003007800040478000308a3000700320049
:1015c0000200e00021003200b3407800015a7800a8
:1015d0000104e000f5ff3a00020037000200e000dd
:1015e0001a0032001004e00003003a001700370030
:1015f000031c78000281e90080007800e10f5100af
:1016000008003600b0017800f5ef2f008382420019
:101610000382ea00048262000508280005026200d5
:10162000f3ff320008007800010037000201e900f2
:10163000000478000200e00004003200b1417800ac
:10164000035878000304e000f8ff3a008000eb0044
:101650000800780003000700080078004f047800b5
:1016600000000600889fbe008a9fbe0080047800ac
:101670000200e0005a00320001407800814c7800fe
:1016800082814400f1f99f00e20f510054003600be
:1016900091449800a1449800e1f99f00d1f99f007e
:1016a000e60f51004e003600b1449800c1f99f008a
:1016b000e80f51004a0036000905ea00630565009d
:1016c0000a8444000a055100c1ff2f00010565008e
:1016d0000080fb008000eb0012102000131020009f
:1016e0007d050700008cbe000a01440060b99f0020
:1016f00071b99f00e80f55003900360020049800aa
:1017000031049800400498005104980020b99f00cb
:1017100031b99f0040b99f0051b99f00f80f5500a3
:101720002f0036006004980071049800000c9800a7
:10173000110c9800200c9800310c9800400c980077
:10174000510c980020b19f0031b19f0040b19f0023
:1017500051b19f0060b19f0071b19f0000b99f001f
:1017600011b99f0064016400780141000204440043
:10177000020555006011b8000203be000002be0061
:101780000403be006022b800000072008180720075
:1017900002017300838173000f0037000802780094
:1017a000009abe00029abe00009abe000292be00dd
:1017b000000c9800110c9800220c9800330c980033
:1017c000400c9800510c9800620c9800730c980023
:1017d0000a02b1000802b000ff0f5500efff3e0003
:1017e000090078004f05be004f04be00000006004f
:1017f0000000fa00cfb8970068815700df010700aa
:101800000080fa0000000600040007005c000700ea
:10181000900007000b01070033013700ec874700f9
:10182000889fbe008a9fbe008c9fbe008e1f7800de
:101830000006780001047800180790002805900041
:1018400098067800cdb79f00b80590003202be0020
:101850002203be000400be000601be004f18de00d9
:101860006011b8008000eb00d0b79f00e1b79f0087
:10187000f2b79f0083bf9f00800478000900e0005a
:10188000060032006000b8006011b8000402500089
:101890008582580006035900878359000e00e00036
:1018a000020035000d10a100cdb79f000900e00037
:1018b00005003a004fb097000028a30002003a004c
:1018c0000038a300020032008a00e900010037005e
:1018d0008a007800f8815700a200200008007800f4
:1018e000860007000900e00003003a00cfb097002f
:1018f0000128a300080032000000e9000081450033
:10190000b1c2b3000900e00001003200d1c2b3004f
:1019100001497800050037000138a30003003200b8
:101920000000e90001c2b300817578004801900011
:101930000201e90000015100808045004fb297008c
:101940008a0178000c007800a40107009c00900038
:101950000188a3000400320098009000810f50001d
:1019600001003d00010078004f0778004f06be00df
:101970004f05be004f04be00cf00b10000000600be
:101980000200fa00889fbe008a9fbe000005780012
:10199000010478000200780018019000a80590006a
:1019a00098007800b1bf9f00b80490000200e000ea
:1019b000020035000110a100b1bf9f00ea8157006d
:1019c000820020008b0078003002be002003be00a1
:1019d00008007800490007003fb99700f000610057
:1019e000030032000000e90001c3b30081747800f5
:1019f0003fb99700e8006100030032000000e900f1
:101a000001c2b30081747800480190000201e9002e
:101a100000015100808044003fba97008b0178009c
:101a20000a0078006d0107009a0090000188a30069
:101a30000400320098009000810f500001003d002a
:101a4000010078004f05be004f04be000080fa0080
:101a500000000600ea874700889fbe008a9fbe00fc
:101a60008e1f78000004780003007800728757000a
:101a700084e2260055c72600049fbe00c3962200bc
:101a8000030f78006c875700004feb0011059000a2
:101a9000a1049000910578000200e00002003200ed
:101aa0000207780001003700728757000000e0004d
:101ab00002003a000e007800220307000a00e0004e
:101ac000030035008a0f5000010036000a0078003c
:101ad0000b02780089017800000178008e00780000
:101ae000080078003d0107004f0778004f05be0051
:101af0004f04be00af00b10000000600f4874700ad
:101b0000889fbe008a9fbe008c9fbe008e1f7800fb
:101b10000605be000404be0081bf9f0082b79f007f
:101b2000f3b79f00b0009000e1b79f001301780069
:101b300092b79f0090069000400690000c06e900c6
:101b40000d00e00001003d001d002000efb19700f6
:101b50000c8041000048eb001e0020001f003700f1
:101b60000c06e9000fb09700cf80de006109b900d4
:101b7000a0b79f00b1b79f00c2b79f00d3b79f0027
:101b80000203be000002be000800be000a01be0043
:101b90000005070000077800efb097000c804000b8
:101ba00003c3b300034847008d06e9000fb8970050
:101bb0000000e90080bf9f002fb29700bfb29700de
:101bc0004fb39700dfb397000800be000a01be00c4
:101bd000e90407000205be000004be000c00e0009e
:101be0000d003200e00f5400e08f5c00e00f5d005c
:101bf000e08f5d00daff3a000d00e000d8ff3c0006
:101c00008fb897000100e000030034001fb1970077
:101c10000218a300d2ff3a000e00e00002003a00d2
:101c2000ffb197001340a1000c0078004f07780027
:101c30004f06be004f05be004f04be004f01b1006d
:101c4000000006000200fa00889fbe008a9fbe00c6
:101c500080047800010478000200780018019000e8
:101c60002805900098007800b1bf9f00b80590004b
:101c70000200e000020035000110a100b1bf9f008a
:101c8000ea815700a20020008a0078003002be00de
:101c90002003be000800780098ff0700480190006c
:101ca0000201e90000015100808045003fba970021
:101cb0008a01780009007800c800070099009000a8
:101cc0000188a3000400320098009000810f5000aa
:101cd00001003d00010078004f05be004f04be002a
:101ce0000080fa0000000600fa874700889fbe00c7
:101cf0008a9fbe008c9fbe008e1f780080047800f3
:101d000001047800820578001801900028059000f1
:101d100018077800b80090000200e00002003500cb
:101d20000e10a100010037001200200070006700b3
:101d3000e0b79f00090032003b02be002b03be004b
:101d4000e00f5200e08f5a00e00f5b00e08f5b0075
:101d5000020032008a86e900010037008a06780016
:101d6000e8026700f5b79f00010032008d06e90028
:101d70003b02be002b03be00e4af9f00f5af9f0007
:101d800086b79f0097b79f00480690000c06e900b1
:101d90000c8040000048eb00efb297007fb2970044
:101da0008903780081047800d8af9f00020478008e
:101db0008bbf9f008a057800034578002a00370012
:101dc0000c06e9006fab97006f006300e90f50004d
:101dd00002003c000003b000010037007005b000b5
:101de0000a03fb001604b100f90f53000c003e007b
:101df000000378000650a0001606b100f90f53004a
:101e000007003e00b4b79f00a5b79f00c7b79f006b
:101e1000d9020700cfb39700afb297003fb2970047
:101e200080747e000804e9008d06e9006fa8970021
:101e3000ffa897000fb197009fb1970046002000c0
:101e40008301d1000281d3008180d3000080d300c0
:101e50000603e900faff3a00e0af9f00f1af9f00f0
:101e600082b79f0093b79f00e10f56000f00360026
:101e70006fa89700ffa897000fb197009fb1970038
:101e8000e00f5000e08f5800e00f5900e08f59003c
:101e9000cbff3a000800e000c9ff3c000d00e00065
:101ea000020034000e18a300c5ff3a008900780034
:101eb000f4b79f00870478005fac97008a417800f0
:101ec0000b0578008fbd97000500e0001000320080
:101ed0003b02be002b03be00e4af9f00f5af9f00a6
:101ee00086b79f0097b79f00e00f5200e08f5a001f
:101ef000e00f5b00e08f5b00050032000c06e9009c
:101f000083707e000c06e90000c3b30080707e0081
:101f1000ffb297000500e000030032000c06e90064
:101f200000c2b30080707e00480190000201e90009
:101f30000c0151008c8040000e0278008a0178006c
:101f40000900780025000700990090000188a3008f
:101f50000400320098009000810f500001003d0005
:101f6000010078004f0778004f06be004f05be0005
:101f70004f04be00af01b1000000060082017800ee
:101f800001017800f1ff270006023700889fbe009c
:101f90008a1f7800800478004900900002047800cd
:101fa000800f54000100360000047800080178001a
:101fb0006a8544001a007800db0107001a0044001b
:101fc000000d7800e8844400990c14000048eb00f0
:101fd0004f0578004f04be0000000600f28747005e
:101fe000889fbe008a9fbe008c9fbe008e1f780017
:101ff00080047800010578000204780083057800e9
:102000006107620002003a008b0f5400080039009b
:10201000080178008a00780009007800dbff0700db
:102020008b0f540002003900880578001e0037002d
:10203000088655000c017800f00f560001003600ac
:1020400002012000010220007e80570085fd07006c
:102050008c0678000500370002012000fe80570042
:1020600009007800c9ff0700f0865600ef8f560080
:10207000f9ff3e004461de0000ff2f000091b9002f
:1020800002014600fe80570009007800bfff0700ec
:102090000e00e00004003a00080178008a00780091
:1020a00009007800b9ff07000b0078004f0778009f
:1020b0004f06be004f05be004f04be002f01b10009
:1020c00000000600000005000000050000000500fb
:1020d000000178000040eb008080fb008180400020
:1020e000a386200063c278000404e00003003a00e5
:1020f000b086200060c078000000060092017800e1
:10210000934f520004003a00b086200060c078006f
:102110000309e800010037000040e800ea4f5000e2
:10212000edff360000000600f6874700889fbe00de
:102130008a9fbe008c9fbe008e1f780080047800ae
:102140000104780083057800040678000000eb00a5
:10215000c0b79f008080eb00d1b79f00e0b79f0021
:10216000f2b79f000008200080bf9f009800780011
:10217000010078000005eb00010037000a05e800c7
:10218000304178000204e0000300320053c2b30083
:10219000834f5100f9ff3a000a00e00004003200ca
:1021a0000a0178000900780078ff0700180c450044
:1021b0001807780050c2b3009e4f100033013a0058
:1021c0000e07e8000e0c780010003700cfb0970023
:1021d0000100a0000b003700cfb097000110a00055
:1021e00008003700cfb097000120a000050037009d
:1021f000cfb097000130a00002003700cfb09700a9
:102200000140a000c1b79f00000ce8001800780052
:1022100090407800b2c2b30082cf5000f1ff32008c
:1022200007003c0002c2b30082cf5000f0ff320032
:1022300032c2b30082cf500007003a00efff3700f0
:10224000d2c2b30082cf5000e0ff320002c3b3001d
:1022500082cf5000e0ff3200a2c2b30082cf500014
:102260000d003a00000ce8001c80e900000e780028
:1022700010007800e0b79f000000e0000f003d0074
:10228000cfb097000100a200c1b79f000000ea0094
:10229000e0b79f00090037008a010700e0b79f0000
:1022a00001003700000ce800180078009000fb00e7
:1022b0000103b100e98f5000faff36004fb09700dc
:1022c0000008a300020032000010a100c0b79f0068
:1022d00018007800e1c2b30090cf100016003a0059
:1022e0008000eb00d1b79f000000e800000c7800f0
:1022f000a1c2b30090cf100006003a00000ce80025
:102300001c80e900000e780010007800d0b79f0014
:10231000090037006b010700d0b79f0001003700ac
:10232000000ce800180078009000fb000103b100e9
:10233000e98f5000faff36000800780064ff0700bc
:1023400080467800180078001000fb008301070029
:1023500091062000810f50003800320012003c002e
:1023600041062000810f5000340032000a003c007a
:1023700011062000810f500020003200310620009d
:10238000810f50009a00320051022000810f50004e
:10239000ae003a00a700370071062000810f500000
:1023a000aa003c008200370001072000810f500086
:1023b0005c00320007003c00e1062000810f500065
:1023c00074003200f1062000810f50009f003a0097
:1023d0003900370051072000810f500027003200dc
:1023e00081072000810f5000420032003107200099
:1023f000810f500095003a00850037008d80fb006a
:102400000c01780000fe2f000f0040006101070062
:102410000000e0009c00320018007800000ce8008a
:102420009041780002fe2f000f014100f880570014
:102430000900780024ff07000e0037008d80fb00a4
:102440008c0178001200200000fe2f000f004000d9
:102450006f0107000000e0008b003200180ce8005c
:1024600002fe2f000f014100f8805700090078009c
:10247000eafc070000054500840037008d80fb0062
:102480008c0178000001eb0000fe2f000f004000df
:102490005f0107000000e0007b003200180ce8003c
:1024a00002fe2f000f014100f8805700090078005c
:1024b000e4fd0700efff37008d80fb008c01780002
:1024c0000001eb0000fe2f000f004000500107004c
:1024d0000000e0006c003200180ce80002fe2f0043
:1024e0000f014100f88057000900780024fd070023
:1024f000e0ff37008d80fb008c0178000001eb00cd
:1025000000fe2f000f004000410107000000e00026
:102510005d00320018007800000ce800904178005f
:10252000160037008c0178000001eb00010f20003d
:1025300000fe2f000f004000350107000000e00002
:1025400051003200180ce8000fb097009fb09700c0
:102550002fb19700bfb19700e00f5000e08f5800f7
:10256000e00f5900e08f590003003a008001eb00b2
:10257000428620004000370083c7b30002fe2f00d0
:102580000f014100f880570009007800d6fd0700d0
:10259000b8ff37000b0145008d80fb008c017800ef
:1025a00000fe2f000f0040007201070036003700c8
:1025b0008d80fb000c01780000fe2f000f00400012
:1025c000f40007000000e0002f003200180078003f
:1025d000000ce8009041780002fe2f000f0141003e
:1025e000f880570009007800b7fe0700a1ff370008
:1025f00000c8b30080cf560023003a00180ce80052
:102600001c80e900000e7800104078000d003700b3
:1026100000c8b30080cf56001b003a00180ce80039
:102620001c80e900000e78008001eb0010017800aa
:102630001100370001c8b30081cf560012003a00e4
:10264000180ce800e0df9f000800370050c2b3001c
:10265000e0df9f000e0c78000000eb00c0b79f0089
:10266000e0b79f008080eb00d1b79f0013002000ef
:10267000e2fd2f000f014100f880570009007800ab
:10268000f4fc07007bff3700180ce8000a00780014
:102690004f0778004f06be004f05be004f04be0036
:1026a0006f01b100000006008200fa00889fbe00a2
:1026b0008a1f78000005780082047800c13f9f00df
:1026c0000004eb0010003700090278008801780050
:1026d000a2f72f000f01410081f72f008f804000eb
:1026e0000a00780090fe070008004000880f5000a4
:1026f00004003d00b0042000004488000084eb008a
:1027000004003700000478004f3897001004e00000
:10271000edff3a00080078004f0578004f04be0036
:102720000080fa00000006008001780002003700f7
:10273000b15978000201e9000200e000fcff3a0014
:102740000000060080007800040037003104e0003b
:1027500002003a000000510000000600010178006c
:102760000108a300f9ff3a008101780031017800e7
:10277000f4ef2f00020242000281ea00020162002f
:102780000408280004016100f7ff3200830078008c
:10279000010178003104e000fdff3a000000510023
:1027a00000000600f28747008e1f780002027800c2
:1027b000030178000000e00002003200000778000a
:1027c00001003700728757008002eb000100e00033
:1027d000010032008102e900708057000600090004
:1027e0000018eb007280570000a8eb0023102000b7
:1027f00093bf9f00aebf9f00b1bf9f00c5bf9f00aa
:102800000100e00004003d00b00420000044880006
:102810000080eb0005003700004feb00eebf9f008b
:10282000debf9f0084007800030007004f07780098
:102830002f01b100000006000200fa00881f780096
:1028400000047800e2bf9f00648157000800780010
:1028500095ff0700980090000148a3000100320096
:102860000080eb004f0478000080fa0000000600b2
:102870000000fa00cfb8970068815700bffd07003d
:102880000080fa0000000600e4fb07003cfc0700a3
:10289000ecfc070014fd07006efc37008000780098
:1028a0001000200002022000828f5000040032003d
:1028b000e9805000e48f5000010036000000eb007a
:1028c00000000600889fbe008a1f78008004780000
:1028d0000904780088047800394578000a00fb0074
:1028e000eeff07000000e000f9ff3a00b0c2b300bd
:1028f000804f550005003200d0c2b3008000eb00cd
:10290000804f550005003a00020037008000eb00c0
:1029100001003700110020000804e8000000eb006f
:10292000030037006a02b900020052000003b00041
:102930003801fb0003fd2f0082814100e98f510027
:10294000f8ff36000100e00001003a000000ea0054
:102950004f0578004f04be0000000600f1fb2f0079
:1029600080804000f98f500001003e000050a00020
:1029700000000600f9ff3700f1f92f0080804000c9
:10298000f98f500001003e00f005b2000000060083
:10299000f9ff3700881f7800000478000008200045
:1029a000808f50001700350010082000808f5000e5
:1029b0000b00340030082000808f500011003a00d6
:1029c0009200780068805000000978003002be0054
:1029d0002003be00049cbe000694be000700370022
:1029e0009202780064805200000978001000be0056
:1029f0009a000700009cbe000294be001000200058
:102a0000010037000000eb004f04780000000600d2
:102a100084082000848f50001d0032000d003c000f
:102a200014082000848f50002700320002003c0070
:102a3000040820000400370024082000848f500080
:102a40002a00320044082000848f500048003a00d9
:102a50003b003700040a2000848f50002c00320015
:102a600004003c0004092000848f500040003a001c
:102a70002d003700020c2000828f50001e00320013
:102a8000020f2000828f500039003a0030003700da
:102a90009380e9000200e00005003200810978001f
:102aa0001102fb00cfa2de00612bb9002d00370020
:102ab00081097800114278000482fb008002eb005b
:102ac0006033b8002700370013027800e40052009a
:102ad0000200e0000a003200810978001102be0005
:102ae0004fabde00860378001e00370093027800ab
:102af000e88052000e00370093027800e480520014
:102b0000810978001102be006033b800150037005b
:102b10009380e9008109780011027800cfa2de00dd
:102b2000612bb9000f00370013037800e800530051
:102b3000810978003102be002103be000900370080
:102b40009380e9000200e00002003200f1ff37004c
:102b50009380e90081097800110278008002eb007f
:102b60006033b8000498be000690be001000050057
:102b70000000050044082000848f50002700320028
:102b80000a003c0014082000848f50001c00320012
:102b900024082000848f5000260032000408200002
:102ba000848f50002c003a001c00370004092000dc
:102bb000848f50001f00320004003c008408200075
:102bc000848f500024003a0007003700040a2000d8
:102bd000848f500011003200040c2000848f5000bc
:102be0001d003a00060037009380e9008109780053
:102bf00091007800010878008248780015003700bd
:102c00009380e9008109780091007800010878003c
:102c1000cf91de008288be000e0037009380e9006d
:102c20008109780091007800010878008208780016
:102c3000080037009380e90081097800910078004e
:102c4000010878006112b900612bb9008498be00b8
:102c50008690be001000050000000500810378008a
:102c600075f607000001be006000b8000478a300fc
:102c700013003a006220e10015003e000d0039000b
:102c80008301d1000281d3008180d3008301d10070
:102c90000281d3008180d3008301d1000281d3005f
:102ca0008180d3000538b000c42add00f300b200f3
:102cb0008381720007f0a70003f0a0000000060067
:102cc00083ff2700020020006110b900f9ff3700e0
:102cd00003ff2700f7ff3700020ab900001bb90005
:102ce0000200b8008100420081004300000006009d
:102cf000889fbe008a9fbe0030044200b0844a0014
:102d000030054b0090854b006000b1000898be0074
:102d10000a90be000440e10005c8e10006d0e100d1
:102d200007d8e10002003100680040001008e80008
:102d30004f05be004f04be0000000600889fbe0085
:102d40008a9fbe003004be002005be000418540057
:102d500005985c0006185d0007985d0011002000d2
:102d60000440e10005c8e10006d0e10007d8e10019
:102d7000010039008000eb00108810004f05be00f4
:102d80004f04be0000000600f4874700889fbe0085
:102d90008a9fbe008c9fbe008e1f7800d0b79f0018
:102da000e1b79f00f2b79f0083bf9f000605be00fa
:102db0000404be00cfae97000000eb00c0b79f0038
:102dc000b0b79f00a0b79f0090b79f0080b79f004b
:102dd000000678004fb09700000140000000e000be
:102de00006003d003c0007000f07470045000700b4
:102df0000f004000beff0700050037003600070047
:102e00000f0747003f0007000f004000cbff0700ff
:102e10004fb797000e00e0000c0035005fb297003e
:102e2000efb297007fb397008fbb97001000200090
:102e3000010020006011b80000027200818272005f
:102e400002037300838373001c0007000c06e80074
:102e500001042000810f5600deff3a000e00e00062
:102e600005003d000802be000a03be0000fe2f0060
:102e70000f0040009eff07000d00e00005003a0033
:102e80000fb297009fb297002fb39700bfb3970080
:102e90000a0007005fb09700efb097007fb197007e
:102ea0008fb997004f0778004f06be004f05be0050
:102eb0004f04be004f01b1000000060001000700f2
:102ec0000000060094b79f00a5b79f00b6b79f000b
:102ed000c7b79f00000006009fb097004f08de00b4
:102ee00002017000a2b79f000fb097004f01de00f3
:102ef000818040008100710091b79f000efe2f007d
:102f000000000600de0078004f09de0000004000ef
:102f10000000710080b79f006fa897004f01de008e
:102f200081804000010f71000e0007004f3ade0063
:102f30000000400004007000e0af9f00090007009f
:102f40000402420085824a0006034b0087834b003f
:102f5000dcff07000802be000a03be0000fe2f00cf
:102f6000000006001fb29700afb297003fb3970072
:102f7000cfb3970000000600881f780018002000db
:102f8000881f780080ff07008f87e9004f047800d2
:102f900000000600801feb007bff07008f87e90021
:102fa00000000600889fbe008a9fbe00e00f500010
:102fb000e08f5800e00f5900e08f59000c003d00f1
:102fc0006044b8006055b8000000540081805c0087
:102fd00002015d0083815d001800200015000700dc
:102fe00008003d00180007000004eb000500370052
:102ff0000004eb000f00070002003d001200070074
:1030000018002000dcff07000800e0000600320086
:103010006022b8006033b8000000520081805a007e
:1030200002015b0083815b004f05be004f04be00c0
:1030300000000600e00f5200e08f5a00e00f5b0036
:10304000e08f5b00000006006044b8006055b800e7
:103050000402540085825c0006035d0087835d00e6
:1030600000000600889fbe008a9fbe008c1f78006b
:10307000e00f5000e08f5800e00f5900e08f59003a
:103080000d003d006044b8006055b80000005400d9
:1030900081805c0002015d0083815d001c002000d6
:1030a0000820e10009a8e1000ab0e1000bb8e10046
:1030b0000d003d00080037000006eb00e00f520055
:1030c000e08f5a00e00f5b00e08f5b0006003d00e0
:1030d0006044b8006055b8000402540085825c006a
:1030e00006035d0087835d00aaff07000c00e00077
:1030f000060032006022b8006033b80000005200c1
:1031000081805a0002015b0083815b004f067800da
:0c3110004f05be004f04be00000006008a
:020000040000fa
:10311c00dff700005aff0000ff070000fa7f0000f5
:10312c00fff70000bbf7000038ff000000000000b4
:10313c0059ff00001f0000005c89000045a1000041
:10314c00d0dd0000f45c0000e07f000043d3000001
:10315c00eafb0000bd640000dbff0000a7d8000004
:10316c00ff070000110000005104000021bc00000a
:10317c0055ad00002003000055ad0000adbd0000b2
:10318c00118800004553000060fc00009999000074
:10319c0000880000afec0000f18d0000f149000048
:1031ac00692a0000692a00007a0600001a900000c3
:1031bc00b2f80000ff0500004d6b00004d6b0000e5
:1031cc009f1c000004b10000deff0000442400003e
:1031dc001ff80000fbde0000dfff0000a0fe000077
:1031ec0024dd00001084000000040000e5af0000a6
:1031fc0010840000fef7000056fb0000ebca000034
:10320c0010480000feff000031f700003fe700000f
:10321c009eff0000e07f0000d9ff0000dcae000044
:10322c0010f40000ffe70000daff00009ad600005f
:10323c00729700009ad60000b8fd00000ffd000048
:10324c00952500007f860000537400005374000025
:10325c003bb60000fcff0000e007000066360000f3
:10326c009cff00001ff80000008000007566000045
:10327c0019000000baba00009b9300008e3d0000bc
:10328c005d7b0000d3070000994e0000b0c0000029
:10329c00ce180000fff700003cff000036ff0000d6
:1032ac00f5fe000010000000bcff000000840000d0
:1032bc00646c000020fd000020fa00009adb000086
:1032cc0055ef0000d39f00007daf000092db0000a3
:1032dc007aff0000d7fe000027cc000019fe00008a
:1032ec001bdd00001cb700001080000000f800007f
:1032fc0071bc00005c430000228a00000efc000040
:10330c002cf500004a2c0000bdff000085a2000037
:10331c0018c600007d860000d96a000012740000f7
:10332c0012740000dfff0000ef07000016440000dd
:10333c00b1d5000010040000fbdd000008fb00000c
:10334c001a4700001dec0000f6f60000ffff00001d
:10335c00bef70000e0ff0000669e00004163000025
:10336c0063210000466f0000756e000064000000d1
:10337c00493200004320000045720000726f0000cb
:10338c007200000025640000005400006f70000003
:10339c0020530000636f0000726500007321000071
:1033ac0000250000733a000020250000643a00005c
:1033bc00204d00003a25000064000000533100004d
:1033cc00207400006f20000074720000792000004f
:1033dc0061670000616900006e210000004400007c
:1033ec006966000066690000637500006c7400007b
:1033fc00793a00000045000061730000790000007c
:10340c004d65000064690000756d00000048000007
:10341c006172000064000000533100002074000051
:10342c006f20000063790000636c0000652e0000c3
:10343c000053000032200000746f00002053000085
:10344c00656c000065630000742e000000530000e2
:10345c0031200000746f00002043000079630000ed
:10346c006c6500002e000000436800006f6f0000c8
:10347c0073650000204d0000617a0000653a000081
:10348c00004d0000617a0000652000003100000052
:10349c004d6100007a65000020320000004d0000f4
:1034ac00617a000065200000330000004d610000cf
:1034bc007a65000020340000004d00006f7600009b
:1034cc006520000074680000652000004e6f00004d
:1034dc006200000053320000207400006f200000d6
:1034ec0053610000766500002e000000486f00005c
:1034fc0077200000746f0000205000006c61000009
:10350c0079000000313a0000006d00006f76000079
:10351c00652000007468000065200000626f0000e8
:10352c006172000064000000746f0000206d0000e8
:10353c006f760000652000007468000065200000b4
:10354c00626100006c6c0000003200003a00000068
:10355c0050720000657300007320000053310000ae
:10356c00206600006f720000203300000073000022
:10357c00656300006f6e000064730000207400002f
:10358c006f2000007265000073650000740000007d
:10359c00507200006573000073200000533200006d
:1035ac00207400006f000000636f00006e74000058
:1035bc00696e000075650000003300003a000000e1
:1035cc0072650000616300006820000074680000f0
:1035dc0065200000626f0000747400006f6d0000c5
:1035ec00006c00006566000074200000746f000021
:1035fc0020460000696e000069730000680000003e
:10360c00343a0000004400006f6e00002774000084
:10361c00204c0000657400002074000068650000f8
:10362c0000540000696d00006572000020740000f9
:10363c006f200000727500006e2000006f75000096
:10364c00740000002020000020200000200000005a
:10365c00000000000000000000000000000000005e
:10366c00010000000100000000000000000000004c
:10367c00000000000100000000000000010000003c
:10368c00000000000100000000000000010000002c
:10369c00000000000000000000000000010000001d
:1036ac000c000000000000002a0000004d0000008b
:1036bc000d000000060000000000000016000000d5
:1036cc000f0000000f0000003a0000004400000052
:1036dc00300000000a000000140000000000000090
:1036ec0010000000000000000600000012000000a6
:1036fc001d0000001d000000120000001d00000055
:10370c0029000000340000003d00000034000000df
:10371c0047000000470000005f000000540000005c
:10372c00680000007400000080000000960000009b
:10373c00a2000000ba0000005400000023000000aa
:10374c00230000002b0000000c0000003f000000d4
:10375c001b000000370000001300000036000000c2
:10376c005a0000001c0000006c0000002600000045
:10377c00160000001e0000002000000022000000c7
:10378c00060000000e000000000000000e0000000b
:10379c00000000000e000000000000000600000009
:1037ac000e00000026000000480000006800000029
:1037bc008c000000a8000000ba00000052000000bd
:1037cc0052000000520000005200000052000000a5
:1037dc005200000006000000000000000000000085
:1037ec0000000000000000000100000001000000cb
:1037fc000100000001000000010000000e000000ac
:10380c00000000000e00000000000000500000004e
:10381c003c0000002800000014000000060000001e
:10382c000e000000260000004800000068000000a8
:10383c00680000007a000000680000007a000000b8
:10384c00ba000000520000005200000052000000bc
:10385c005200000042000000420000004200000044
:10386c0042000000060000005f5f00000508000039
:10387c0000000000000000000000000000fa000042
:10388c000000000000e0000000e000000028000044
:10389c00fe280000fe28000024540000fe54000006
:1038ac0048c40000c8100000264600006c920000be
:1038bc006a0400000a00000010e00000c0000000d4
:1038cc000038000044820000000000008244000028
:1038dc003800000054380000fe380000541000007e
:1038ec00107c000010100000000000000e0c000006
:1038fc00001000001010000010100000000000006c
:10390c000606000000040000081000002040000023
:10391c007c8a000092a200007c00000042fe0000a5
:10392c00020000004e92000092920000628400009f
:10393c0082920000b2cc00001828000048fe000063
:10394c0008e40000a2a20000a29c00003c5200006f
:10395c00929200008c8200008488000090e00000ad
:10396c006c920000929200006c6200009292000037
:10397c009478000000000000280000000000000007
:10398c00022c000000000000001000002844000081
:10399c00822800002828000028280000008200004f
:1039ac004428000010400000809a00009060000045
:1039bc007c820000ba9a0000723e00004888000029
:1039cc00483e0000fe920000929200006c7c0000c9
:1039dc008282000082440000fe820000828200008d
:1039ec007cfe00009292000092820000fe9000008b
:1039fc0090900000807c0000828200008ace000043
:103a0c00fe10000010100000fe00000082fe0000fe
:103a1c00820000000402000082fc000080fe000016
:103a2c001028000044820000fe0200000202000088
:103a3c0002fe00004038000040fe0000fe200000a6
:103a4c0010080000fe7c000082820000827c0000d6
:103a5c00fe90000090900000607c0000828a0000c4
:103a6c00847a0000fe9000009894000062640000cc
:103a7c0092920000924c0000c0800000fe8000007a
:103a8c00c0fc00000202000002fc0000f804000070
:103a9c0002040000f8fc0000021c000002fc000004
:103aac00c628000010280000c6c00000201e000020
:103abc0020c00000869a000092b20000c2000000f4
:103acc00fe820000828200004020000010080000ee
:103adc00040000008282000082fe000020400000f2
:103aec0080400000200200000202000002020000e0
:103afc0000c00000e0100000000400002a2a0000b2
:103b0c001c020000fe140000222200001c1c0000fd
:103b1c0022220000221400001c22000022140000ab
:103b2c00fe1c00002a2a00002a18000000100000c9
:103b3c007e900000403000004a4a0000523c0000d9
:103b4c00fe100000202000001e00000022be00001d
:103b5c00020000000402000002bc000000fe000095
:103b6c00081400002200000000820000fe02000089
:103b7c00003e0000201e0000201e00003e10000031
:103b8c00202000001e1c000022220000221c00002d
:103b9c003e18000024240000181800002424000003
:103bac00183e00003e100000202000001012000003
:103bbc002a2a00002a24000020200000fc220000f9
:103bcc00243c000002020000043e00003804000007
:103bdc0002040000383c0000020c0000023c000013
:103bec002214000008140000223200000a0a00000f
:103bfc000a3c0000222600002a32000022000000ad
:103c0c00106c00008200000000000000fe000000ac
:103c1c0000000000826c00001000000040800000da
:103c2c0040200000400000002001000000000000c7
:103c3c0000000000200100000f0000000000000048
:020000040000fa
:103c4c000000fa001033800000b0a0001033880090
:103c5c001033800000c0a0001033880010338000a7
:103c6c000080a10010338800103380000090a10068
:103c7c0010338800b033800000c0a000b03388003f
:103c8c00f033800000c0a000f033880080002000da
:103c9c00603a88004627ef00313a8000f0f02f00a0
:103cac0000806000303a8800313a8000f0cf2f005d
:103cbc0000806000303a88004747a80047e7a8001a
:103ccc004827ef004a27ef0000c0eb004ae7b70097
:103cdc00513a8000f00f2e000080600000c0a00060
:103cec00503a8800e0c484006b0f0700490f0700ae
:103cfc000b100700711007000080fa00000006008e
:103d0c000000fa0095e1a80095a1a80094c1a900b3
:103d1c00a10c8000f0fc2f00008060000050a0007f
:103d2c00a00c88009421a90083e0a80040422f0039
:103d3c00900c880041058000f0ff28000080600096
:103d4c0000c0a000400588009860a8008860a90009
:103d5c000080fa00000006000600fa00e4004700ac
:103d6c00800878000e80e800000178008040eb00ad
:103d7c00a0c3b30055100700000f78001e00780098
:103d8c000000e00008003a000e80e80010407800c7
:103d9c00fb4f40000700320001ef2100409b29003f
:103dac00010001000300370001ef2100e09b290016
:103dbc000100010082c0b300d1c2b300a0c3b300a4
:103dcc0069100700000f78001e0078000080fa00d0
:103ddc00000006000200fa00000f780071c6840093
:103dec001e007800810278000002780023c0b30026
:103dfc0022c0b30041c1b3000040eb00c70c070068
:103e0c00ffff37000800fa00640147000009780042
:103e1c006600470001087800fe0e07000000eb006a
:103e2c00000f78000b0037001e0078006c00b90002
:103e3c0000007800e80040008082200000804000f4
:103e4c0090007800b0408000808f50000500350055
:103e5c001e0fe8001e007800e40f5000f2ff340043
:103e6c000100370000000000410020000e80e80037
:103e7c00010878001f0037000e80e8001000780061
:103e8c008001e9000e80e800100078006c00b90099
:103e9c008000780080822000008140006c18b900fe
:103eac008000780080822000008040008200780032
:103ebc00b0187800a0107800e48040006400400046
:103ecc00b0187800a0107800e48040006400400036
:103edc00b0187800a0107800e48040006400400026
:103eec000e80e800100078008000e9000e80e800e9
:103efc00010878000e80e800100078009e0f50003a
:103f0c00ddff3c001e0078006c00b90080007800da
:103f1c00808220000080400062002000e400470006
:103f2c009100780090f507001e0078006c00b90035
:103f3c0080007800e0822000008040008040eb0090
:103f4c0001487800b24080001e0078006c00b90077
:103f5c008000780000832000008040000208780078
:103f6c001e0078006c00b9008000780020832000cf
:103f7c0000804000e6004700110878000080fa003d
:103f8c00000006002000fa00b1c58400b09c290096
:103f9c00810278000002780013c0b30012c0b30095
:103fac0041c0b30020c0b3005c0c07000000eb0064
:103fbc00000f78002a0037001e0078006c00b90052
:103fcc0000007800ea004000808220000080400061
:103fdc00900178001e0078006c00b9000000780099
:103fec00e800400080822000008040001001780032
:103ffc001e0078006c00b9008000780080822000e0
:10400c00808040000e80e800831f7800821f7800bb
:10401c00811f7800719d2900811f7800f1f5070040
:10402c00e887570063cd84000e81e8001e00e8008d
:10403c00004078007400b90000007800004078005f
:10404c00830278000202780013c0b30012c0b300e0
:10405c008040780040c0b300300c07001e0fe80011
:10406c001e007800e20f500003003c001e00780098
:10407c00e40f5000d0ff3400b1c58400409e2900ed
:10408c00810278000002780013c0b30012c0b300a4
:10409c0001c5b30040c0b300200c07000080fa003b
:1040ac00000006000000fa00213380000080200090
:1040bc00008060000000e00010003a0060408000ca
:1040cc007140800061004000e08048006040880042
:1040dc00714088006240800073408000001920000d
:1040ec0001002000800f5100818f59000b00360019
:1040fc0010002000804088000800370080408000bd
:10410c00e10f500003003a001028ef0010002000cf
:10411c00030037000c28ef000e28ef000000eb0026
:10412c000080fa00000006000000fa002133800035
:10413c0000002100008060000000e00010003a0048
:10414c00304080004140800061004000e080480029
:10415c00304088004140880032408000434080005d
:10416c000019200001002000800f5100818f5900a0
:10417c000b0036001000200050408800080037006b
:10418c0050408000e10f500003003a000a28ef0075
:10419c0010002000030037000628ef000828ef006d
:1041ac000000eb000080fa00000006000000fa009e
:1041bc004627a80010042000c60f07004627a900b8
:1041cc0000000000303a8000610060000000e00058
:1041dc00fcff3200903880000080fa0000000600de
:1041ec000200fa0010002000000f780071c5840056
:1041fc00509f2900810278000002780013c0b300a0
:10420c0012c0b30021c0b30020c0b300c30b070021
:10421c00e1cb840010a02900810278000002780014
:10422c0013c0b30012c0b30001c1b30000c2b3008d
:10423c00ba0b070061cd840060a0290081027800d0
:10424c000002780013c0b30012c0b30001c2b30067
:10425c0000c2b300b10b070061cd8400d0a02900cf
:10426c00810278000002780013c0b30012c0b300c2
:10427c0001c3b30000c2b300a80b0700b1c5840092
:10428c0020a12900810278000002780013c0b3003d
:10429c0012c0b30061c4b30020c0b3009f0b070071
:1042ac00b1c58400f0a129008102780000027800d9
:1042bc0013c0b30012c0b30001c5b30020c0b300db
:1042cc00960b0700940037002133800000802000fb
:1042dc00008060000000e0008f003a001e0fe80034
:1042ec00e1c4840010a0290081027800000278004b
:1042fc0013c0b30012c0b30001c1b30000c2b300bd
:10430c00860b0700e1c4840060a0290081027800bc
:10431c000002780013c0b30012c0b30001c2b30096
:10432c0000c2b3007d0b0700e1c48400d0a02900bb
:10433c00810278000002780013c0b30012c0b300f1
:10434c0001c3b30000c2b300740b07001e00780059
:10435c00e40f500002003a0010002000000f78001b
:10436c001e007800e10f50001c003a00e1cb8400e5
:10437c0010a02900810278000002780013c0b3005d
:10438c0012c0b30001c1b30000c2b300630b07003d
:10439c0061cd840060a029008102780000027800c1
:1043ac0013c0b30012c0b30001c2b30000c2b3000b
:1043bc005a0b070061cd8400d0a02900810278003f
:1043cc000002780013c0b30012c0b30001c3b300e5
:1043dc0000c2b300510b07003d0037001e007800ef
:1043ec00e20f50001c003a0061cd840010a029009f
:1043fc00810278000002780013c0b30012c0b30031
:10440c0001c1b30000c2b300440b0700e1cb840030
:10441c0060a02900810278000002780013c0b3006c
:10442c0012c0b30001c2b30000c2b3003b0b0700c3
:10443c0061cd8400d0a029008102780000027800b0
:10444c0013c0b30012c0b30001c3b30000c2b30069
:10445c00320b07001e0037001e007800e30f5000df
:10446c001b003a0061cd840010a029008102780065
:10447c000002780013c0b30012c0b30001c1b30036
:10448c0000c2b300250b070061cd840060a0290099
:10449c00810278000002780013c0b30012c0b30090
:1044ac0001c2b30000c2b3001c0b0700e1cb8400b7
:1044bc00d0a02900810278000002780013c0b3005c
:1044cc0012c0b30001c3b30000c2b300130b07004a
:1044dc00b1c58400d0a229008102780000027800c6
:1044ec0013c0b30012c0b30061c4b30020c0b3004a
:1044fc000a0b0700b1c58400f0a1290081027800e5
:10450c000002780013c0b30012c0b30001c5b300a1
:10451c0020c0b300010b07002133800000002100f4
:10452c00008060000000e00067ff3a00390d0700d2
:10453c001e0078000080fa00000006000200fa005d
:10454c0010002000000f780071c58400a0a3290082
:10455c00810278000002780013c0b30012c0b300cf
:10456c0021c0b30020c0b300ec0a0700e1cb8400eb
:10457c0070a42900810278000002780013c0b300f7
:10458c0012c0b300c1c0b30000c2b300e30a0700fd
:10459c0061cd8400e0a4290081027800000278003b
:1045ac0013c0b30012c0b300c1c1b30000c2b3004a
:1045bc00da0a070061cd840050a529008102780039
:1045cc000002780013c0b30012c0b300c1c2b30024
:1045dc0000c2b300d10a070061cd8400c0a5290038
:1045ec00810278000002780013c0b30012c0b3003f
:1045fc00c1c3b30000c2b300c80a0700b1c5840030
:10460c0020a12900810278000002780013c0b300b9
:10461c0012c0b30061c4b30020c0b300bf0a0700ce
:10462c00b1c58400f0a12900810278000002780055
:10463c0013c0b30012c0b30001c5b30020c0b30057
:10464c00b60a0700ce00370021338000008020001e
:10465c00008060000000e000c9003a001e0fe80076
:10466c00e1c4840070a42900810278000002780063
:10467c0013c0b30012c0b300c1c0b30000c2b3007a
:10468c00a60a0700e1c48400e0a429008102780096
:10469c000002780013c0b30012c0b300c1c1b30054
:1046ac0000c2b3009d0a0700e1c4840050a5290094
:1046bc00810278000002780013c0b30012c0b3006e
:1046cc00c1c2b30000c2b300940a0700e1c4840065
:1046dc00c0a52900810278000002780013c0b30045
:1046ec0012c0b300c1c3b30000c2b3008b0a0700f1
:1046fc001e007800e50f500002003a001000200068
:10470c00000f78001e007800e10f500025003a00e1
:10471c00e1cb840070a429008102780000027800ab
:10472c0013c0b30012c0b300c1c0b30000c2b300c9
:10473c007a0a070061cd8400e0a429008102780088
:10474c000002780013c0b30012c0b300c1c1b300a3
:10475c0000c2b300710a070061cd840050a5290086
:10476c00810278000002780013c0b30012c0b300bd
:10477c00c1c2b30000c2b300680a070061cd840057
:10478c00c0a52900810278000002780013c0b30094
:10479c0012c0b300c1c3b30000c2b3005f0a07006c
:1047ac00770037001e007800e20f500025003a0019
:1047bc0061cd840070a42900810278000002780089
:1047cc0013c0b30012c0b300c1c0b30000c2b30029
:1047dc00520a0700e1cb8400e0a429008102780092
:1047ec000002780013c0b30012c0b300c1c1b30003
:1047fc0000c2b300490a070061cd840050a529000e
:10480c00810278000002780013c0b30012c0b3001c
:10481c00c1c2b30000c2b300400a070061cd8400de
:10482c00c0a52900810278000002780013c0b300f3
:10483c0012c0b300c1c3b30000c2b300370a0700f3
:10484c004f0037001e007800e30f500025003a009f
:10485c0061cd840070a429008102780000027800e8
:10486c0013c0b30012c0b300c1c0b30000c2b30088
:10487c002a0a070061cd8400e0a429008102780097
:10488c000002780013c0b30012c0b300c1c1b30062
:10489c0000c2b300210a0700e1cb840050a5290017
:1048ac00810278000002780013c0b30012c0b3007c
:1048bc00c1c2b30000c2b300180a070061cd840066
:1048cc00c0a52900810278000002780013c0b30053
:1048dc0012c0b300c1c3b30000c2b3000f0a07007b
:1048ec00270037001e007800e40f500024003a0027
:1048fc0061cd840070a42900810278000002780048
:10490c0013c0b30012c0b300c1c0b30000c2b300e7
:10491c00020a070061cd8400e0a42900810278001e
:10492c000002780013c0b30012c0b300c1c1b300c1
:10493c0000c2b300f909070061cd840050a529001d
:10494c00810278000002780013c0b30012c0b300db
:10495c00c1c2b30000c2b300f0090700e1cb840070
:10496c00c0a52900810278000002780013c0b300b2
:10497c0012c0b300c1c3b30000c2b300e709070003
:10498c002133800000002100008060000000e00066
:10499c002dff3a001f0c07001e0078000080fa0063
:1049ac00000006001000fa00e8024700810a7800b7
:1049bc00ea00470082087800ec0047008308780082
:1049cc00ee00470084087800e8004700110f7800db
:1049dc008e80e8006a01470092087800e4004700e6
:1049ec006c01470092087800e60047006e01470012
:1049fc00920878003e02be002e03be000498be0052
:104a0c000690be000080fa00000006005801fa0073
:104a1c00881f7800c21420000e01410000097800a4
:104a2c00e01420000e00400001087800ec00470064
:104a3c0002b3290012000900b218780024032000e8
:104a4c000402470065b5290012000900351a7800e8
:104a5c008605200006034700c7b72900120009008d
:104a6c00371b7800e10720008100470022ba29009b
:104a7c0012000900b218780011002000400a200032
:104a8c000e0040000108780011002000600a200090
:104a9c000e0040000108780011002000800a200060
:104aac000e0040000108780011002000a00a200030
:104abc000e0040000108780011002000c00a200000
:104acc000e0040000108780001052000e00a2000db
:104adc000e00400001087800c1032000000b2000ec
:104aec000e0040000108780061022000200b20001d
:104afc000e0040000108780001012000400b20004e
:104b0c000e0040000108780061002000600b2000be
:104b1c000e004000010878008000eb00800b2000a4
:104b2c000e00400001087800e1002000a00b2000de
:104b3c000e004000010878008000eb00c00b200044
:104b4c000e00400001087800e1002000e00b20007e
:104b5c000e00400001087800a10b2000000c200082
:104b6c000e00400001087800410b2000200c2000b2
:104b7c000e00400001087800410b2000400c200082
:104b8c000e00400001087800410b2000600c200052
:104b9c000e00400001087800410b2000800c200022
:104bac000e0040000108780061002000a00c2000dd
:104bbc000e004000010878008000eb00c00c2000c3
:104bcc000e004000010878008000eb00e00c200093
:104bdc000e004000010878008000eb00000d200062
:104bec000e004000010878008000eb00200d200032
:104bfc000e004000010878008000eb00400d200002
:104c0c000e004000010878008000eb00600d2000d1
:104c1c000e0040000108780011002000800d2000db
:104c2c000e00400001087800a40d2000040247008b
:104c3c0085bc290006000900351a7800860e200074
:104c4c000603470067bd290006000900371b7800e2
:104c5c00610f20008100470042be290006000900b8
:104c6c00b2187800441020000402470025bf290028
:104c7c0008000900351a7800661120000603470069
:104c8c0047c0290008000900371b7800811220005a
:104c9c008100470062c1290008000900b2187800a1
:104cac00a41320000402470085c229000800090053
:104cbc00351a7800e01420000e0040001000780037
:104ccc00e10f500010003a006c0f47002103200048
:104cdc008e8040000e80e8000108780081052000dd
:104cec008e8040006400470001087800e107200036
:104cfc008e804000660047000108780031012000da
:104d0c006800470001087800e01420000e00400005
:104d1c0010007800e20f500011003a00460a200003
:104d2c00060f4700e10a20008e8040000e80e8004c
:104d3c0001087800810b20008e8040006400470041
:104d4c0001087800210c20008e804000660047008e
:104d5c000108780051002000680047000108780025
:104d6c00e01420000e00400010007800e30f50000b
:104d7c0011003a00c70c2000070f4700a10d2000be
:104d8c008e8040000e80e80001087800810e200023
:104d9c008e8040006400470001087800610f2000fd
:104dac008e804000660047000108780071002000ea
:104dbc006800470001087800e01420000e00400055
:104dcc0010007800e40f500011003a004110200050
:104ddc00010f4700611120008e8040000e80e8001a
:104dec0001087800811220008e804000640047008a
:104dfc0001087800a11320008e8040006600470057
:104e0c000108780091002000680047000108780034
:104e1c008000eb006a004700010878002f00370083
:104e2c006a0047001000780000004000e6004700d0
:104e3c009100780000804000100278006a00470062
:104e4c001000780000004000e4004700910078005a
:104e5c0000804000900178006a0047001000780044
:104e6c00000040008e80e800910078000080400037
:104e7c00100178006a004700100078000000400024
:104e8c001e00400090007800c01420000e0040006e
:104e9c00900278006a004700100078004300dd00a3
:104eac0000844200001520000e004000bdfe0700eb
:104ebc00001520000e0040003002be002003be0092
:104ecc00049cbe000694be006a00470010007800e7
:104edc008000e8006a004700010878006a0047007b
:104eec0010007800f40f5000cdff3400c0142000e7
:104efc000e004000100078000019b000e8004700d8
:104f0c00110878004f0478000080fa0000000600b9
:104f1c000e00fa00e4024700809abe008292be00a6
:104f2c006c00470004087800680047009000780087
:104f3c006c00470010007800008f50006a0047009a
:104f4c00100078009e0040000e80e80001087800f8
:104f5c0064004700100078000000e00018003a00e0
:104f6c001e0078000000e0002d0035000006200037
:104f7c009e007800808f500029003c0064cd840096
:104f8c001e00780080417800660047001000780011
:104f9c00804078006a0047001000780000407800dc
:104fac0000c140001e007800804078006600470079
:104fbc001000780000407800a207070018003700a6
:104fcc000e80e800100078000000e00013003500af
:104fdc001e0078000000e00002003d000000eb0025
:104fec00000f780064cd84000e80e800100078007b
:104ffc00804178006600470010007800004178007e
:10500c001e00780080407800660047001000780091
:10501c00004078008b0707000100370000000000fb
:10502c000080fa00000006000e00fa00e4024700bf
:10503c00809abe008292be006c0047000408780083
:10504c0068004700900078006c0047001000780062
:10505c00008f50006a004700100078009e0040004e
:10506c000e80e8000108780064004700100078000a
:10507c000000e00014003a001e0078000000e00080
:10508c0029003500e4c484001e00780080417800bb
:10509c006600470010007800804078006a004700e6
:1050ac00100078000040780000c140001e0078001d
:1050bc0080407800660047001000780000407800bf
:1050cc0060070700180037000e80e8001000780019
:1050dc000000e000130035001e0078000000e00026
:1050ec0002003d000000eb00000f7800e4c48400d7
:1050fc000e80e800100078008041780066004700c0
:10510c0010007800004178001e0078008040780084
:10511c00660047001000780000407800490707003f
:10512c0001003700000000000080fa0000000600bb
:10513c001000fa00008fbe006400470002087800df
:10514c006600470003087800680047000498be001a
:10515c000690be0068004700100078000000e000d8
:10516c0038003a000e80e800900078006c00470090
:10517c0010007800808f500006003c006c00470047
:10518c00900078006600470010007800808f500077
:10519c000c0034000e80e800900078006c00470092
:1051ac0010007800808f5000240035006c00470000
:1051bc00900078006600470010007800808f500047
:1051cc001e0035006a00470090007800640047001c
:1051dc0010007800808f500009003c006a004700e6
:1051ec00900078006e0047001000780000804000ae
:1051fc00e400470091007800810f50000d003d0045
:10520c009e0078006a00470010007800808f5000e4
:10521c000a0035009e0078006a00470010017800f3
:10522c006e0047001000780000004100808f500095
:10523c0002003c0010002000010037000000eb00d1
:10524c00370037009e0078006a0047001000780095
:10525c00808f500006003c006a00470090007800e8
:10526c006400470010007800808f50000b00340061
:10527c009e0078006a00470010007800808f500074
:10528c00260035006a004700900078006400470053
:10529c0010007800808f5000200035006c00470013
:1052ac00900078006600470010007800808f500056
:1052bc0009003c006c004700900078006e0047002d
:1052cc001000780000804000e60047009100780054
:1052dc00810f50000f003d000e80e8009000780018
:1052ec006c00470010007800808f50000b003500d8
:1052fc000e80e800900078006c00470010017800e8
:10530c006e0047001000780000004100808f5000b4
:10531c0002003c0010002000010037000000eb00f0
:10532c000080fa00000006000800fa00e6004700c2
:10533c00800878008000eb000e80e80001087800ff
:10534c006600470010007800660040008040eb00cb
:10535c00014878000000eb00000f780011c4b30086
:10536c006400470001487800aa090700b1c5840011
:10537c0030a62900810278000002780013c0b30027
:10538c0012c0b30041c0b30020c0b30063070700d4
:10539c00b1c5840020a129008102780000027800a8
:1053ac0013c0b30012c0b30061c4b30020c0b3007b
:1053bc005a070700b1c5840000a7290081027800b4
:1053cc000002780013c0b30012c0b30001c5b300d3
:1053dc0020c0b3005107070045003700213380007f
:1053ec0000802000008060000000e00001003a0016
:1053fc001e0fe8001e007800e40f5000020034007d
:10540c000000eb00000f7800e3c484009e007800dd
:10541c006600470010007800010040001040780042
:10542c00004178001e007800004078006c00b90044
:10543c00000078000040780000c0e800830278008b
:10544c000242780023c0b30022c0b300e1c1b30014
:10545c00b306070055fb0700cf80de0070ec070099
:10546c0002002000e331240073ed07004bec070031
:10547c000e81e800000978000e80e800100078002a
:10548c000040780012c4b300824040006400470022
:10549c00014878009e0078006600470010007800f4
:1054ac0001004000e40047001148780063cd8400ff
:1054bc0064004700104178001e007800004078001e
:1054cc006c00b900000078000040780000c0e800d3
:1054dc00830278000242780023c0b30022c0b300dc
:1054ec00e1c1b3008e06070060092000f90a07002d
:1054fc002133800000002100008060000000e000eb
:10550c00b6ff3a000080fa00000006000000fa0026
:10551c00b1c58400c0a72900810278000002780080
:10552c0013c0b30012c0b30021c0b30020c0b3003d
:10553c00fa06070061cd840080a82900810278005a
:10554c000002780013c0b30012c0b300c1c0b30096
:10555c0020c0b300f106070061cd8400b0a829007b
:10556c00810278000002780013c0b30012c0b300af
:10557c0061c1b30020c0b300e806070061cd840010
:10558c00a0a92900810278000002780013c0b300a2
:10559c0012c0b30001c2b30020c0b300df06070085
:1055ac0061cd8400b0aa2900810278000002780045
:1055bc0013c0b30012c0b300c1c2b30020c0b3000b
:1055cc00d606070061cd8400e0aa2900810278008c
:1055dc000002780013c0b30012c0b30061c3b30063
:1055ec0020c0b300cd06070061cd8400d0ab2900ec
:1055fc00810278000002780013c0b30012c0b3001f
:10560c0001c4b30020c0b300c4060700b1c58400b8
:10561c00e0ac2900810278000002780013c0b300ce
:10562c0012c0b300e1c4b30020c0b300bb06070036
:10563c00b1c58400a0ad2900810278000002780079
